{
  "contractName": "DappTokenSale",
  "abi": [
    {
      "inputs": [
        {
          "internalType": "contract DappToken",
          "name": "_tokenContract",
          "type": "address"
        },
        {
          "internalType": "uint256",
          "name": "_tokenPrice",
          "type": "uint256"
        }
      ],
      "stateMutability": "nonpayable",
      "type": "constructor"
    },
    {
      "anonymous": false,
      "inputs": [
        {
          "indexed": false,
          "internalType": "address",
          "name": "_buyer",
          "type": "address"
        },
        {
          "indexed": false,
          "internalType": "uint256",
          "name": "_amount",
          "type": "uint256"
        }
      ],
      "name": "Sell",
      "type": "event"
    },
    {
      "inputs": [],
      "name": "tokenContract",
      "outputs": [
        {
          "internalType": "contract DappToken",
          "name": "",
          "type": "address"
        }
      ],
      "stateMutability": "view",
      "type": "function",
      "constant": true
    },
    {
      "inputs": [],
      "name": "tokenPrice",
      "outputs": [
        {
          "internalType": "uint256",
          "name": "",
          "type": "uint256"
        }
      ],
      "stateMutability": "view",
      "type": "function",
      "constant": true
    },
    {
      "inputs": [],
      "name": "tokensSold",
      "outputs": [
        {
          "internalType": "uint256",
          "name": "",
          "type": "uint256"
        }
      ],
      "stateMutability": "view",
      "type": "function",
      "constant": true
    },
    {
      "inputs": [
        {
          "internalType": "uint256",
          "name": "_numberOfTokens",
          "type": "uint256"
        }
      ],
      "name": "buyToken",
      "outputs": [],
      "stateMutability": "payable",
      "type": "function",
      "payable": true
    },
    {
      "inputs": [],
      "name": "endSale",
      "outputs": [],
      "stateMutability": "nonpayable",
      "type": "function"
    }
  ],
  "bytecode": "0x608060405234801561001057600080fd5b50604051610b2f380380610b2f833981810160405281019061003291906100eb565b336000806101000a81548173ffffffffffffffffffffffffffffffffffffffff021916908373ffffffffffffffffffffffffffffffffffffffff16021790555081600160006101000a81548173ffffffffffffffffffffffffffffffffffffffff021916908373ffffffffffffffffffffffffffffffffffffffff1602179055508060028190555050506101a3565b6000815190506100d081610175565b92915050565b6000815190506100e58161018c565b92915050565b600080604083850312156100fe57600080fd5b600061010c858286016100c1565b925050602061011d858286016100d6565b9150509250929050565b60006101328261014b565b9050919050565b600061014482610127565b9050919050565b600073ffffffffffffffffffffffffffffffffffffffff82169050919050565b6000819050919050565b61017e81610139565b811461018957600080fd5b50565b6101958161016b565b81146101a057600080fd5b50565b61097d806101b26000396000f3fe60806040526004361061004a5760003560e01c80632d296bf11461004f578063380d831b1461006b578063518ab2a81461008257806355a373d6146100ad5780637ff9b596146100d8575b600080fd5b610069600480360381019061006491906105f8565b610103565b005b34801561007757600080fd5b506100806102de565b005b34801561008e57600080fd5b506100976104f1565b6040516100a49190610719565b60405180910390f35b3480156100b957600080fd5b506100c26104f7565b6040516100cf91906106de565b60405180910390f35b3480156100e457600080fd5b506100ed61051d565b6040516100fa9190610719565b60405180910390f35b61010f81600254610523565b341461011a57600080fd5b80600160009054906101000a900473ffffffffffffffffffffffffffffffffffffffff1673ffffffffffffffffffffffffffffffffffffffff166370a08231306040518263ffffffff1660e01b8152600401610176919061069a565b60206040518083038186803b15801561018e57600080fd5b505afa1580156101a2573d6000803e3d6000fd5b505050506040513d601f19601f820116820180604052508101906101c69190610621565b10156101d157600080fd5b600160009054906101000a900473ffffffffffffffffffffffffffffffffffffffff1673ffffffffffffffffffffffffffffffffffffffff1663a9059cbb33836040518363ffffffff1660e01b815260040161022e9291906106b5565b602060405180830381600087803b15801561024857600080fd5b505af115801561025c573d6000803e3d6000fd5b505050506040513d601f19601f8201168201806040525081019061028091906105cf565b61028957600080fd5b806003600082825461029b9190610745565b925050819055507f5e5e995ce3133561afceaa51a9a154d5db228cd7525d34df5185582c18d3df0933826040516102d39291906106b5565b60405180910390a150565b60008054906101000a900473ffffffffffffffffffffffffffffffffffffffff1673ffffffffffffffffffffffffffffffffffffffff163373ffffffffffffffffffffffffffffffffffffffff161461033657600080fd5b600160009054906101000a900473ffffffffffffffffffffffffffffffffffffffff1673ffffffffffffffffffffffffffffffffffffffff1663a9059cbb60008054906101000a900473ffffffffffffffffffffffffffffffffffffffff16600160009054906101000a900473ffffffffffffffffffffffffffffffffffffffff1673ffffffffffffffffffffffffffffffffffffffff166370a08231306040518263ffffffff1660e01b81526004016103f0919061069a565b60206040518083038186803b15801561040857600080fd5b505afa15801561041c573d6000803e3d6000fd5b505050506040513d601f19601f820116820180604052508101906104409190610621565b6040518363ffffffff1660e01b815260040161045d9291906106b5565b602060405180830381600087803b15801561047757600080fd5b505af115801561048b573d6000803e3d6000fd5b505050506040513d601f19601f820116820180604052508101906104af91906105cf565b6104b857600080fd5b60008054906101000a900473ffffffffffffffffffffffffffffffffffffffff1673ffffffffffffffffffffffffffffffffffffffff16ff5b60035481565b600160009054906101000a900473ffffffffffffffffffffffffffffffffffffffff1681565b60025481565b60008082148061054b57508282838561053c91906107cc565b925082610549919061079b565b145b61058a576040517f08c379a0000000000000000000000000000000000000000000000000000000008152600401610581906106f9565b60405180910390fd5b92915050565b60008151905061059f81610919565b92915050565b6000813590506105b481610930565b92915050565b6000815190506105c981610930565b92915050565b6000602082840312156105e157600080fd5b60006105ef84828501610590565b91505092915050565b60006020828403121561060a57600080fd5b6000610618848285016105a5565b91505092915050565b60006020828403121561063357600080fd5b6000610641848285016105ba565b91505092915050565b61065381610826565b82525050565b6106628161086e565b82525050565b6000610675601483610734565b9150610680826108f0565b602082019050919050565b61069481610864565b82525050565b60006020820190506106af600083018461064a565b92915050565b60006040820190506106ca600083018561064a565b6106d7602083018461068b565b9392505050565b60006020820190506106f36000830184610659565b92915050565b6000602082019050818103600083015261071281610668565b9050919050565b600060208201905061072e600083018461068b565b92915050565b600082825260208201905092915050565b600061075082610864565b915061075b83610864565b9250827fffffffffffffffffffffffffffffffffffffffffffffffffffffffffffffffff038211156107905761078f610892565b5b828201905092915050565b60006107a682610864565b91506107b183610864565b9250826107c1576107c06108c1565b5b828204905092915050565b60006107d782610864565b91506107e283610864565b9250817fffffffffffffffffffffffffffffffffffffffffffffffffffffffffffffffff048311821515161561081b5761081a610892565b5b828202905092915050565b600061083182610844565b9050919050565b60008115159050919050565b600073ffffffffffffffffffffffffffffffffffffffff82169050919050565b6000819050919050565b600061087982610880565b9050919050565b600061088b82610844565b9050919050565b7f4e487b7100000000000000000000000000000000000000000000000000000000600052601160045260246000fd5b7f4e487b7100000000000000000000000000000000000000000000000000000000600052601260045260246000fd5b7f64732d6d6174682d6d756c2d6f766572666c6f77000000000000000000000000600082015250565b61092281610838565b811461092d57600080fd5b50565b61093981610864565b811461094457600080fd5b5056fea264697066735822122037ff87bdc2f1ee80911b54ca252bf225711770e70fc369abbf7d62cc2ff4fbb664736f6c63430008040033",
  "immutableReferences": {},
  "source": "// SPDX-License-Identifier: MIT\r\n\r\npragma solidity >=0.8.4;\r\n\r\nimport \"./DappToken.sol\";\r\n\r\ncontract DappTokenSale {\r\n    \r\n    address admin;\r\n    DappToken public tokenContract;\r\n    uint public tokenPrice;\r\n    uint public tokensSold;\r\n    \r\n    event Sell (\r\n        address _buyer,\r\n        uint _amount\r\n        );\r\n    \r\n    constructor(DappToken _tokenContract, uint _tokenPrice) {\r\n        admin = msg.sender;\r\n        tokenContract = _tokenContract;\r\n        tokenPrice = _tokenPrice;\r\n    }\r\n    \r\n    modifier _onlyAdmin {\r\n        require(msg.sender == admin);\r\n        _;\r\n    }\r\n    \r\n    function mul(uint x, uint y) internal pure returns (uint z) {\r\n        require(y == 0 || (z = x * y) / y == x, \"ds-math-mul-overflow\");\r\n    }\r\n    \r\n    function buyToken(uint _numberOfTokens) public payable {\r\n        require(msg.value == mul(_numberOfTokens , tokenPrice));\r\n        require(tokenContract.balanceOf(address(this)) >= _numberOfTokens);\r\n        require(tokenContract.transfer(msg.sender, _numberOfTokens));\r\n\r\n        tokensSold += _numberOfTokens;\r\n        \r\n        emit Sell(msg.sender, _numberOfTokens);\r\n    }\r\n    \r\n    function endSale() public _onlyAdmin {\r\n        require(tokenContract.transfer(admin, tokenContract.balanceOf(address(this))));\r\n        selfdestruct(payable(address(admin)));\r\n    }\r\n\r\n}",
  "sourcePath": "D:\\Token\\contracts\\DappTokenSale.sol",
  "compiler": {
    "name": "solc",
    "version": "0.8.4+commit.c7e474f2.Emscripten.clang"
  },
  "schemaVersion": "3.4.2",
  "updatedAt": "2021-08-09T09:00:49.459Z",
  "networkType": "ethereum",
  "devdoc": {
    "kind": "dev",
    "methods": {},
    "version": 1
  },
  "userdoc": {
    "kind": "user",
    "methods": {},
    "version": 1
  }
}